01REMESSA01COBRANCA       00000000000004249460METALURGICA POJDA             237Banco Bradesco 281009        MX0000001                                                                                                                                                                                                                                                                                     000001
1                   0009017050003288300000009001              2370000000000009001000000000000N           2  01000000900123100900000000220000000000001N0705090000000000000050423100900000000000000000000000000000000000000002001422660001792R DISTRIB DE PECAS E IMP LTDA ME       FOLHA 16 QUADRA 3 LOTE 43 -NOVA MARABA              68511020                                                            000002
1                   0009017050003288300000656401              2370000000000656401400000000000N           2  01000065640122100900000000410000000000001N310309000000000000005042210090000000000000000000000000000000000000000200284233000163AMIGUINHO SHOPPING DAS BICICLETAS E PECARUA HENRIQUE RABELO, 1533 -JOAQUIM TAVOR            60110540                                                            000003
1                   0009017050003288300000001601              2370000000000001601500000000000N           2  01000000160130100900000000624000000000001N080509000000000000005043010090000000000000000000000000000000000000000202855166000115A R MACEDO COUTINHO BICICLETAS LTDA     RUA DR MATTOS, 96 -CENTRO                           28800000                                                            000004
1                   0009017050003288300000001901              2370000000000001901400000000000N           2  01000000190128100900000006351000000000001N070509000000000000005042810090000000000000000000000000000000000000000203901308000104A P DE ARAUJO                           R DOM FREDERICO COSTA, 976-SANTISSIMO               68010240                                                            000005
1                   0009017050003288300000001401              2370000000000001401200000000000N           2  01000000140126100900000001200000000000001N060509000000000000005042610090000000000000000000000000000000000000000208150028000117A CICLISTA IMPORTADORA PECAS DE BICICLETRUA CEARA, 1029 -MERCADINHO                         65911610                                                            000006
1                   0009017050003288300000001701              2370000000000001701100000000000N           2  01000000170125100900000000999000000000001N0605090000000000000050425100900000000000000000000000000000000000000002001422660001792R DISTRIB DE PECAS E IMP LTDA ME       FOLHA 16 QUADRA 3 LOTE 43 -NOVA MARABA              68511020                                                            000007
1                   0009017050003288300000009901              2370000000000009901800000000000N           2  01000000990129100900000000100000000000001N060509000000000000005042910090000000000000000000000000000000000000000207505768000166ALAERCIO GUOLLO                         RUA PREFEITO VIRGILIO MACCARI, 135 -null            88830000                                                            000008
1                   0009017050003288300000001101              2370000000000001101300000000000N           2  01000000110127100900000001365000000000001N060509000000000000005042710090000000000000000000000000000000000000000268602721000105A FATIMA S FERREIRA CICLE - ME          AV AMÉRICA CENTRAL, 437 LOJA 1 -SAO CRIS            84609323                                                            000009
1                   0009017050003288300000651101              2370000000000651101800000000000N           2  01000065110124100900000000225000000000001N051009000000000000005042410090000000000000000000000000000000000000000100065316717260CLIENTE PADRAO                          24 HORAS, 1-CENTRO                                  80410260                                                            000010
1                   0009017050003288300000657601              2370000000000657601200000000000N           2  01000065760131100900000001258500000000001N030409000000000000005043110090000000000000000000000000000000000000000200411301000108J R COM DE BICICLETAS E ACESSORIOS LTDA AV DAS INDUSTRIAS, 1062-SAO JOAO                    90200290                                                            000011
9                                                                                                                                                                                                                                                                                                                                                                                                         000012

02RETORNO01COBRANCA       00000000000004249460METALURGICA POJDA LTDA        237BRADESCO       2810090160000000001                                                                                                                                                                                                                                                                          281009         000001
102794400950001140000009017050003288300000001601              000000000000000160150000000000000000000000000902281009000000160100000000000000016015301009000000006240023702055  000000000000000000000000000000000000000000000000000000000000000000000000000000000000000000000000000000000000000000000                          0000000000                                                                  000002
102794400950001140000009017050003288300000001701              000000000000000170110000000000000000000000000902281009000000170100000000000000017011251009000000009990023700546  000000000000000000000000000000000000000000000000000000000000000000000000000000000000000000000000000000000000000000000                          0000000000                                                                  000003
102794400950001140000009017050003288300000001901              000000000000000190140000000000000000000000000902281009000000190100000000000000019014281009000000063510023700524  000000000000000000000000000000000000000000000000000000000000000000000000000000000000000000000000000000000000000000000                          0000000000                                                                  000004
102794400950001140000009017050003288300000009001              000000000000000900100000000000000000000000000902281009000000900100000000000000090010231009000000002200023700546  000000000000000000000000000000000000000000000000000000000000000000000000000000000000000000000000000000000000000000000                          0000000000                                                                  000005
102794400950001140000009017050003288300000009901              000000000000000990180000000000000000000000000902281009000000990100000000000000099018291009000000001000023700383  000000000000000000000000000000000000000000000000000000000000000000000000000000000000000000000000000000000000000000000                          0000000000                                                                  000006
102794400950001140000009017050003288300000651101              000000000000065110180000000000000000000000000902281009000065110100000000000006511018241009000000002250023700049  000000000000000000000000000000000000000000000000000000000000000000000000000000000000000000000000000000000000000000000                          0000000000                                                                  000007
102794400950001140000009017050003288300000656401              000000000000065640140000000000000000000000000902281009000065640100000000000006564014221009000000004100023700452  000000000000000000000000000000000000000000000000000000000000000000000000000000000000000000000000000000000000000000000                          0000000000                                                                  000008
102794400950001140000009017050003288300000657601              000000000000065760120000000000000000000000000902281009000065760100000000000006576012311009000000012585023700268  000000000000000000000000000000000000000000000000000000000000000000000000000000000000000000000000000000000000000000000                          0000000000                                                                  000009
102794400950001140000009017050003288300000001101              000000000000000110130000000000000000000000000924281009000000110100000000000000011013271009000000013650023700000  000000000000000000000000000000000000000000000000000000000000000000000000000000000000000000000000000000000000000000000                          4800000000                                                                  000010
102794400950001140000009017050003288300000001401              000000000000000140120000000000000000000000000924281009000000140100000000000000014012261009000000012000023700000  000000000000000000000000000000000000000000000000000000000000000000000000000000000000000000000000000000000000000000000                          4800000000                                                                  000011
9201237          000000080000000101875000000001          00008000001018750000000000000000000000000000000000000000000000000000000000000000000000000000000000000000000000000000000000000000000                                                                                                                                                                              00000000000000000000000         000012
